:1000000085C100000C94D0270C94FB270C94262863
:100010000C9451280C947C280C94A7280C94D2287A
:100020000C94FD28A4C10000A2C10000A0C10000E2
:100030009EC100009CC100009AC1000098C1000050
:1000400096C1000094C1000092C1000090C1000060
:100050008EC100008CC100008AC100000C942829C8
:1000600086C100000C94242D0C945A2D80C10000F0
:100070007EC100007CC100007AC1000078C1000090
:1000800076C1000074C1000072C1000070C10000A0
:100090000C94B02D0C94E62D6AC1000068C10000DC
:1000A00066C1000064C1000062C1000060C10000C0
:1000B0005EC100005CC100005AC1000058C10000D0
:1000C00056C1000054C100000C9412180C943C2E30
:1000D0000C94722E4CC100000C94C82E0C94FE2E71
:1000E00046C10000001D3A2774694E53E8F5D2CF8F
:1000F0009C81A6BBCDD0F7EAB9A4839E25381F0208
:10010000514C6B76879ABDA0F3EEC9D46F725548F7
:100110001B06213C4A57706D3E230419A2BF9885E7
:10012000D6CBECF1130E2934677A5D40FBE6C1DCD7
:100130008F92B5A8DEC3E4F9AAB7908D362B0C11C7
:10014000425F78659489AEB3E0FDDAC77C61465BB7
:100150000815322F5944637E2D30170AB1AC8B96A7
:10016000C5D8FFE2263B1C01524F6875CED3F4E997
:10017000BAA7809DEBF6D1CC9F82A5B8031E392487
:10018000776A4D50A1BC9B86D5C8EFF24954736E77
:100190003D20071A6C71564B1805223F8499BEA367
:1001A000F0EDCAD735280F12415C7B66DDC0E7FA57
:1001B000A9B4938EF8E5C2DF8C91B6AB100D2A3747
:1001C00064795E43B2AF8895C6DBFCE15A47607D37
:1001D0002E3314097F6245580B16312C978AADB027
:1001E000E3FED9C400000A0B02090C0D0E08070338
:1001F00004010000000000000000000000000000FA
:1002000000000000000000000000000000000000EE
:1002100012111000000000000000000000000000AB
:100220000000000000000000000001021020200873
:100230000810204010204080020102010804020141
:1002400001020408102040808040201008040201B0
:100250008004020180402010080402010804020109
:100260000102040810204080010204081020408090
:1002700005050505070508080808020202020A0A22
:100280000808040404040101010101010101030340
:10029000030303030303040707070C0C0C0C0C0CEB
:1002A0000C0C0202020206060606060606060B0BE8
:1002B0000B0B0B0B0B0B000020002300260029006A
:1002C0002C002F003200000100000301060109018B
:1002D00000002200250028002B002E0031003400F1
:1002E00002010000050108010B01000021002400AB
:1002F00027002A002D003000330001010000040116
:1003000007010A01832D0F2E9B2E272F11241FBEBC
:10031000CFEFD1E2DEBFCDBF00E00CBF14E0A0E024
:10032000B2E0E0E9F2E600E00BBF02C007900D92F8
:10033000A031B107D9F728E0A0E1B4E001C01D92D7
:10034000A13CB207E1F711E0C6E8D1E000E006C049
:1003500021970109802FFE010E94B72FC238D107D3
:1003600080E00807A9F70E943E240C94463148CE4D
:100370000895CF92DF92EF92FF92CF93882351F1AD
:100380006A017B01CFEFC80F20E030E0A901CB016B
:10039000B6010E944C2587FF11C0C701B6019058D5
:1003A0000E94BD259B01AC016C2F70E090E080E0C5
:1003B000CF91FF90EF90DF90CF90B2C0C701B60110
:1003C0000E94B8258C2FCF91FF90EF90DF90CF90B7
:1003D0000C942F2ACF91FF90EF90DF90CF9008954B
:1003E0000F931F938B019C0183E0369527951795FA
:1003F00007958A95D1F7005F1B4F462F477021E084
:1004000030E0F90102C0EE0FFF1F4A95E2F7AF019D
:10041000F80120812423CB010196211102C090E034
:1004200080E01F910F9108950F931F938B019C0102
:1004300083E036952795179507958A95D1F76770CC
:1004400081E090E001C0880F6A95EAF7F801E05F6B
:10045000FB4F2081452B31F48095822380831F91AF
:100460000F910895822BFACF2F923F924F925F9275
:100470006F927F928F929F92AF92BF92CF92DF92B4
:10048000EF92FF920F931F93CF93DF93D62EC72E39
:10049000782E692E49015A01280161E08D2D0E94B4
:1004A000692BCD2DDC2D8E010F5F1F4FA8016D2D07
:1004B0007C2D872D962DB8DF20E030E0A901C20108
:1004C000B7010E94EE26181664F4C201B7010E941B
:1004D000BD252B01C501B4010E94BD25A201CE019D
:1004E00023D0C801DF91CF911F910F91FF90EF9022
:1004F000DF90CF90BF90AF909F908F907F906F9044
:100500005F904F903F902F900895882341F0815045
:10051000682F70E090E080E050E040E085CF0895E3
:10052000862FB9010C942F2A9C01FC01EC51FE4F3F
:10053000E491E150E231E0F4F0E08827ED55FD4F21
:100540008F4F0C94B72FB502BC02BF02D602EB024C
:10055000B80200030C03100327033C035103680394
:100560007D03B8029203A903BE0384B5806884BDED
:1005700060E0822F0C94A52B84B58062F8CF809127
:1005800080008C7F82608093800080918100807EDB
:100590008061682B609381005093870040938600B0
:1005A00080918000806880938000E2CF80918000FD
:1005B0008C7F82608093800080918100807E80614A
:1005C000682B609381005093870040938600809150
:1005D00080008062E8CF809180008C7F8260809371
:1005E000800080918100807E8061682B6093810013
:1005F0005093870040938600809180008860D3CF1D
:100600008091B00080688093B0008091B100887FB5
:10061000682B6093B100ACCF8091B0008062F3CFC3
:10062000809190008C7F82608093900080919100F7
:10063000807E8061682B6093910050939700409377
:1006400096008091900080688093900091CF809177
:1006500090008C7F82608093900080919100807EDA
:100660008061682B609391005093970040939600AF
:10067000809190008062E8CF809190008C7F8260B2
:100680008093900080919100807E8061682B6093C0
:10069000910050939700409396008091900088605D
:1006A000D3CF8091A0008C7F82608093A000809146
:1006B000A100807E8061682B6093A1005093A70009
:1006C0004093A6008091A00080688093A00050CF46
:1006D0008091A0008C7F82608093A0008091A10017
:1006E000807E8061682B6093A1005093A7004093A7
:1006F000A6008091A0008062E8CF8091A0008C7F4E
:1007000082608093A0008091A100807E8061682B30
:100710006093A1005093A7004093A6008091A00091
:100720008860D3CF809120018C7F826080932001EC
:1007300080912101807E8061682B6093210150931C
:100740002701409326018091200180688093200139
:100750000FCF809120018C7F826080932001809157
:100760002101807E8061682B6093210150932701D5
:1007700040932601809120018062E8CF8091200182
:100780008C7F82608093200180912101807E806136
:10079000682B60932101509327014093260180919B
:1007A00020018860D3CF611102C00C94692B6130A5
:1007B000E1F362E0FACF662319F061E00C94A52B17
:1007C00060E0FCCFCF92DF92EF92FF926B017C0151
:1007D0009F7720E030E040E859E50E944C2587FFF4
:1007E0002BC020E030E040E05FE3C701B6010E948B
:1007F000EE2687FD0EC020E030E040E05FE3C70159
:10080000B6010E94D524FF90EF90DF90CF900C941A
:10081000262620E030E040E05FEBC701B6010E94F1
:10082000EE26181684F420E030E0A901C701B601D5
:100830000E94F2266B017C01C701B601FF90EF9088
:10084000DF90CF90089520E030E040E05FE3C70103
:10085000B6010E94D424FF90EF90DF90CF900C94CB
:1008600039254F925F926F927F928F929F92AF92B3
:10087000BF92CF92DF92EF92FF920F931F93CF938D
:10088000DF93E0915308F091540880809180A2801A
:10089000B38020919E0230919F024091A00250911E
:1008A000A102C501B4010E94F2262B013C010E9465
:1008B00026269B01AC01C0909A02D0909B02E0904A
:1008C0009C02F0909D02C301B2010E94D42420E05A
:1008D00030E040E05FE30E94EE2687FF04C0F7FAB5
:1008E000F094F7F8F0942091A2023091A302409185
:1008F000A4025091A502C501B4010E944C2587FFB6
:10090000E8C12091A6023091A7024091A80250911F
:10091000A902C701B6010E94F22660939F07709357
:10092000A0078093A1079093A2071F9281E08F9365
:1009300054ED852E52E0952EAA24A394B12C73ED8C
:10094000C72E72E0D72EEE24E394F12C02ED12E0D4
:1009500023EB38E04BEA57E069EA77E087EA97E073
:100960000E94B516A091A907B091AA072FEF3FE703
:100970000E94D42F6B017C012091AB073091AC0712
:10098000A1E0B0E80E94BF2F6C0D7D1D8E1D9F1D44
:10099000C090A707D090A8070D2C000CEE08FF0808
:1009A0006C0D7D1D8E1D9F1D0E94EB252091AE02BA
:1009B0003091AF024091B0025091B1020E94F226F4
:1009C0009B01AC012093A3073093A4074093A50794
:1009D0005093A60760919F077091A0078091A1078F
:1009E0009091A2070E94D4242091B2023091B302C8
:1009F0004091B4025091B5020E94F2268B01D82F8B
:100A0000C92F0F900F909B01482F592F6091BE0264
:100A10007091BF028091C0029091C1020E944C254A
:100A200087FF60C16091B6027091B7028091B802F1
:100A30009091B902C7DE6B017C0120E030E040E814
:100A400053E40E944C256FEF87FF0EC020E030E09A
:100A5000A901C701B6010E94EE2660E087FD04C02F
:100A6000C701B6010E94BD2584E0A5DEC090C20288
:100A7000D090C302E090C402F090C50298014D2FBF
:100A80005C2FC701B6010E944C2587FD14C0C090A1
:100A9000C602D090C702E090C802F090C902980147
:100AA0004D2F5C2FC701B6010E94EE2618161CF0D0
:100AB0006801ED2EFC2E60916708709168088091A6
:100AC000690890916A088CDCEC0190936608809329
:100AD0006508C701B6019F772091CA023091CB0209
:100AE0004091CC025091CD020E9450252091CE021F
:100AF0003091CF024091D0025091D1020E94F22653
:100B00006B017C0120E030E04FE753E40E944C256C
:100B100087FFF1C020E030E0A901C701B6010E94C3
:100B2000EE2618160CF0EEC0B701A601CE0121DCAE
:100B30001F9281E08F9384ED882E82E0982EAA2464
:100B4000A394B12C23EDC22E22E0D22EEE24E39406
:100B5000F12C02ED12E023EB38E04BEA57E069EAB2
:100B600077E087EA97E00E94031782E090E00E9416
:100B7000B814E0915308F09154084081518162818A
:100B8000738190E080E00E94B414609148087091F5
:100B9000490880914A0890914B080E94E9252AE073
:100BA00037ED43E25CE30E94F226AB01BC0181E039
:100BB00090E00E94B41480904C0890904D08A09052
:100BC0004E08B0904F080F900F9020E030E040E8C2
:100BD0005FEBC501B4010E944C25C0915308D09130
:100BE0005408882311F1C880D980EA80FB80A701CE
:100BF0009601C501B4010E94D4244B015C0120E0A0
:100C000030E040E054E3C701B6010E94F2269B01A8
:100C1000AC01C501B4010E94EE26181634F089EE2D
:100C200092E09093AE078093AD078091520888239D
:100C300031F089EE92E09093AE078093AD0760911A
:100C400040087091410880914208909143086F5F7D
:100C50007F4F8F4F9F4F6093400870934108809360
:100C60004208909343080E94E9259B01AC016091E2
:100C700044087091450880914608909147080E9469
:100C8000F226688379838A839B83809148089091B8
:100C90004908A0914A08B0914B080196A11DB11DC9
:100CA0008093480890934908A0934A08B0934B0852
:100CB000DF91CF911F910F91FF90EF90DF90CF9038
:100CC000BF90AF909F908F907F906F905F904F906C
:100CD00008952091AA023091AB024091AC0250914C
:100CE000AD0217CE6091BA027091BB028091BC0236
:100CF0009091BD029FCEC12CD12C4FE7E42E43E44E
:100D0000F42E12CFC12CD12C76010ECF8F929F9250
:100D1000AF92BF92DF92EF92FF920F931F93CF9308
:100D2000DF93EDEAF7E080E598E097838683C3E5FB
:100D3000D8E0D093EE07C093ED0704E418E0158BDC
:100D4000048BF0931808E0931708F583E48321E0FF
:100D500030E0DC012D933C938DEF92E09387828706
:100D600025E538E03983288340E050E068EA71E403
:100D700040934C0850934D0860934E0870934F0871
:100D80004AE057ED63E27CE3E801488359836A83D4
:100D90007B834EE258E086E797E3A8E5B8ECEA01EA
:100DA00088839983AA83BB8389E692EAA5E0BEE69D
:100DB0008093320890933308A0933408B093350899
:100DC00088EF9FE7A5E3BFEB809336089093370841
:100DD000A0933808B093390880E89FEFA3EBBCE1FB
:100DE00080933A0890933B08A0933C08B0933D0849
:100DF000A5E3B4E0B383A283EDE2F4E01196FC93A3
:100E0000EE938FE093E09183808393838283958335
:100E1000848397838683CEE3D8E01596DC93CE93C4
:100E2000149713965C934E93129717963C932E93B8
:100E30001697E3E2F4E08AE0DF011D928A95E9F774
:100E4000E9E1F4E0F983E88381E190E09183808334
:100E500088E792E09383828386E592E0958384839A
:100E60008AE192E09783868386E092E0918780878B
:100E7000CDE5D8E01092B3081092B4081092B508EE
:100E80001092B6081092AB08812C912C54018394D7
:100E90008092AC089092AD08A092AE08B092AF08D4
:100EA00061E084E080DCDD24D394D092B008188225
:100EB00022E32E8F93E39F8F84E388A385E389A3A6
:100EC00086E38AA387E38BA388E38CA389E38DA3BE
:100ED00081E38EA330E33FA388A789A78AA72BA726
:100EE0008CA79DA78BE798E09F838E8385E090E099
:100EF000A0E0B0E08A879B87AC87BD871D8289828E
:100F00009A82AB82BC82E12CF12C8701A801970167
:100F100065E070E080E090E0A7DA998788876A85CD
:100F20007B858C859D855CDA9987888721DADD82CF
:100F3000DF91CF911F910F91FF90EF90DF90BF90C5
:100F4000AF909F908F9008958091AB08811103C05E
:100F500081E08093AB0880915D08811132C081E00F
:100F600080935D0880915E0890915F08A091600871
:100F7000B09161080197A105B10519F5809162084A
:100F80008823F9F06091670870916808809169087A
:100F900090916A0825DA909366088093650840E08E
:100FA00050E0BA01E6D960916708709168088091B5
:100FB000690890916A0814DA90936608809365082E
:100FC000A4CA0895EF92FF920F931F93CF93DF93DC
:100FD000EA01F901DC011496ED90FC901597129648
:100FE0004D915C9113974E0D5F1D288139811896A4
:100FF0000D911C9119970217130730F00D911C9158
:101000001197012B09F441C08A01021B130BDC016B
:1010100018968D919C918E199F09800F911F8617AC
:101020009707DCF1C901860F971F8417950778F49D
:101030007183608333832283158214821782168220
:1010400088819981680F791F7983688316C011831D
:10105000008333832283601B710B7583648390E06C
:1010600080E01616170614F49E2D8F2D9683878325
:10107000D701A60FB71FB983A88380E0DF91CF9176
:101080001F910F91FF90EF90089518968D919C916C
:10109000821B930B861797075CF681E0EFCFCF9208
:1010A000DF92EF92FF92CF93DF936B0184E4869FF0
:1010B000E001879FD00D1124CF5BDB4F8AA99BA94C
:1010C000009721F00E94A4301BAA1AAA84E48C9DE8
:1010D000F0018D9DF00D1124EF5BFB4F86A997A9C0
:1010E000009711F00E94A43084E48C9DF0018D9D46
:1010F000F00D1124EF5BFB4F138A128A168A178AB0
:10110000108E118E128E138E148E158E168E178ED3
:1011100010A211A281E090E093A382A315A214A2D1
:1011200016A217A210A611A613A612A615A614A6FB
:1011300016A617A610AA11AA13AA12AA15AA14AACB
:1011400017AA16AA11AE10AE12AE13AE14AE15AE9B
:10115000DF01DE961D921D921D921C921397EE5B8D
:10116000FF4F11821082DF91CF91FF90EF90DF90BF
:10117000CF900895CF93DF93FB01DC016D917C91BB
:10118000DB011696CD91DC918081918123E0880F5F
:10119000991F2A95E1F7AA81BB81A80FB91F8D91EC
:1011A0009C91119724853585220F331FEB016A81AD
:1011B0007B81EB01C20FD31F0990D881C02D1496FB
:1011C0002D913C9161E070E0232B11F062E070E022
:1011D000C69F9001C79F300DD69F300D1124A0856A
:1011E000B1852A9FB0012B9F700D3A9F700D11247D
:1011F000A481B5812A9FF0012B9FF00D3A9FF00D3D
:1012000011248E0F9F1FFA01918380837383628361
:10121000DF91CF9108952F923F924F925F926F92FC
:101220007F928F929F92AF92BF92CF92DF92EF9276
:10123000FF920F931F93CF93DF9300D000D0CDB7D1
:10124000DEB7DC011496ED91FC910190F081E02D68
:10125000808591859A838983A281B381BC83AB8386
:10126000FB0181909190A190B190C12CD12C76017D
:10127000C814D904EA04FB04CCF026960FB6F894FF
:10128000DEBF0FBECDBFDF91CF911F910F91FF90B9
:10129000EF90DF90CF90BF90AF909F908F907F9016
:1012A0006F905F904F903F902F90089544805580AD
:1012B000668077804085518562857385CF01409631
:1012C0009E838D83A081B1819D0183E0220F331F16
:1012D0008A95E1F7A981BA8112968D919C91D901E5
:1012E000A80FB91F2D903C9011970484F585E02D2F
:1012F000EE0FFF1F8B819C81E80FF91F0190F08199
:10130000E02D14968D919C91892B41F581E090E020
:10131000E89F9001E99F300DF89F300D1124249F24
:101320008001259F100D349F100D1124249DC001B4
:10133000259D900D349D900D1124A8016D817E8115
:10134000820D931D0E942D31ED81FE81E00FF11F72
:101350009FEFC91AD90AE90AF90A8ACF82E090E018
:10136000D7CFCF93DF93DB01AB52BD4F2C9122231C
:1013700069F024E4269FF001279FF00D1124EF5B14
:10138000FB4FEF0119922A95E9F71C9224E4269F5E
:10139000F001279FF00D1124EF5BFB4F14821582A3
:1013A000168217821186108613861286118A108A79
:1013B00017861686DF91CF9172CE2F923F924F9271
:1013C0005F926F927F928F929F92AF92BF92CF92D5
:1013D000DF92EF92FF920F931F93CF93DF9300D092
:1013E00000D01F921F92CDB7DEB724E4269FF001F4
:1013F000279FF00D1124EF5BFB4F0481158126819F
:101400003781012B022B032B09F4B7C02A016B0192
:101410007C0110E000E0812C912C54013F019F01E0
:10142000285F3F4F3C832B83CF0104969E838D839F
:10143000AB81BC818D919C91ED81FE814081518178
:101440006281738184169506A606B706E4F10E94B0
:10145000A430D3011A968D919C91892B09F07EC0FE
:1014600084E48C9DD0018D9DB00D1124AF5BBB4FEA
:10147000BC83AB8350968D919C910E94A430EB81EC
:10148000FC81868597850E94A430C701B60107DEDE
:10149000C701B60128960FB6F894DEBF0FBECDBFC8
:1014A000DF91CF911F910F91FF90EF90DF90CF9040
:1014B000BF90AF909F908F907F906F905F904F9074
:1014C0003F902F904ECFFC01E00FF11F9281998346
:1014D000A381AA839F83A887312C212C241435044F
:1014E00064F089819A810E94A430EFEF8E1A9E0ADF
:1014F000AE0ABE0A0C5F1F4F9BCFAF81B885ED913E
:10150000FD91B887AF83309759F0848195810E940F
:10151000A430EF81F8853297808191810E94A430B8
:10152000BFEF2B1A3B0ADACF800F911FFC01848199
:1015300095810E94A4302B813C812F5F3F4F3C83DB
:101540002B83025F1F4FF501808191812B813C81AC
:10155000241535054CF30E94A43082CF10E000E042
:101560001C821B8224E42C9DC0012D9D900D112412
:10157000DC01A55BBB4F5D01E6CF28960FB6F89462
:10158000DEBF0FBECDBFDF91CF911F910F91FF90B6
:10159000EF90DF90CF90BF90AF909F908F907F9013
:1015A0006F905F904F903F902F90089524E4269F76
:1015B000F001279FF00D1124EF5BFB4F8289938987
:1015C0000497029758F485E090E0938B828B8FEF1D
:1015D0009FEFDC01828F938FA48FB58F08952F9298
:1015E0003F924F925F926F927F928F929F92AF92B3
:1015F000BF92CF92DF92EF92FF920F931F93CF9300
:10160000DF93CDB7DEB7AA970FB6F894DEBF0FBE53
:10161000CDBF9AA389A37E8B6D8B1A01098B1A8B80
:101620002B8B3C8B84E429893A89829F6001839FBC
:10163000D00C112486010F5B1B4F89899A89AB89D5
:10164000BC89F80180839183A283B383AB01BC0181
:10165000CD01B3DED601AB5BBB4F84E0F10101905D
:101660000D928A95E1F7F4E02F0E311C64E070E0F2
:10167000D80114968D919C910E94EE2FF8019187CC
:101680008087892B09F0F5C04D895E8969897A893F
:101690008B899C8992DE81E0AA960FB6F894DEBF12
:1016A0000FBECDBFDF91CF911F910F91FF90EF90B3
:1016B000DF90CF90BF90AF909F908F907F906F9072
:1016C0005F904F903F902F900895A9A5BAA58D9156
:1016D0009C91E98DFA8DE80FF91FF88FEF8BD101FE
:1016E0008D919C91880F991FA9A1BAA1ED91FC91B0
:1016F000E80FF91F80819181EF89F88D91838083B4
:10170000D10114962D913D914D915C9117972BA38A
:101710003CA34DA35EA362E070E08D899E890E9488
:10172000EE2FEF89F88D93838283892B09F4ACCF58
:10173000F8E02F0E311C412C512C32012BA13CA181
:101740004DA15EA142165306640675069CF02B8DD2
:101750003C8D4D8D5E8D2F5F3F4F4F4F5F4F2B8FD9
:101760003C8F4D8F5E8F498D5A8D4C5F5F4F5A8FE6
:10177000498F90C0610124E0C20ED11CD101ED90CF
:10178000FC90EE0CFF1CEF89F88D82819381E80EAE
:10179000F91E68E070E081E090E00E94EE2F8C017D
:1017A000D7018D939C93892B09F46ECF84E0F601C9
:1017B000D80101900D928A95E1F7B8E02B0E311C0B
:1017C000F80180819181A281B381181619061A0649
:1017D0001B06DCF464E070E00E94EE2FD801159641
:1017E0009C938E931497892B09F44ECFD12CC12C46
:1017F000812C912C5401F80180819181A281B381C7
:1018000088169906AA06BB0634F0FFEF4F1A5F0A46
:101810006F0A7F0A93CFF801E480F580EC0CFD1C81
:1018200080E1F101DE01119601900D928A95E1F7B8
:10183000F0E12F0E311CA701BE016F5F7F4FA9A100
:10184000BAA114968D919C9195DCF80186819781BF
:10185000D70112962D913C91820F931F9783868317
:10186000BFEF8B1A9B0AAB0ABB0AE4E0CE0ED11C79
:10187000C2CF1A8E198E1B8E1C8E1D8E1E8E18A323
:101880000F8FA8014C5F5F4F58A74FA3C801089660
:101890009AA789A7EFA1F8A580819181A281B38140
:1018A0002B8D3C8D4D8D5E8D281739074A075B07C0
:1018B0000CF40BCF6EE070E08D899E890E94EE2FB4
:1018C000AF8DB8A11B969C938E931A97B12CA12C27
:1018D000D12CC12CF12CE12C24E4E989FA892E9F2A
:1018E000C0012F9F900D11249C01255B3B4F388F29
:1018F0002F8B88248394912C4D895E89C416D5063C
:1019000054F184E4A989BA898A9F80018B9F100DC4
:1019100011240F5B1B4FF80115861486C70133E0B5
:10192000880F991F3A95E1F70E940830D801519627
:101930009C938E935097892B09F4A6CEC701880FEC
:10194000991F0E940830F80197878687892B09F430
:101950009BCE80E0A1CED1014D905D906D907D90A9
:101960001D0177FC91CEEF89F88D008111810A0D60
:101970001B1DD80111969C928E9241145104610452
:10198000710429F1C2010E940830F8019583848313
:10199000892B09F479CEF8015382428284819581A2
:1019A00097838683918780871386128681E090E0F3
:1019B00045284628472811F490E080E0E80EF91EFB
:1019C000FFEFCF1ADF0A2EE0A20EB11C95CF1596BD
:1019D0001C921E921497DFCF2F923F924F925F92EC
:1019E0006F927F928F929F92AF92BF92CF92DF922F
:1019F000EF92FF920F931F93CF93DF93CDB7DEB794
:101A00006A970FB6F894DEBF0FBECDBF9E8B8D8B4D
:101A100049015A0184E4829F7001839FF00C1124D4
:101A200097012F5B3B4F6901FB0180819181F90197
:101A3000958B848BD701A95ABB4FFB01349684E068
:101A400001900D928A95E1F7D701A55ABB4FFB0192
:101A5000389684E001900D928A95E1F7D701A15A5A
:101A6000BB4FFB013C9684E001900D928A95E1F713
:101A7000D701A159BB4FFB01709684E001900D92F4
:101A80008A95E1F78B010C5E1F4FF90186A597A59A
:101A9000A0A9B1A918161906DCF5880F991F880F9F
:101AA000991F0E940830F60193AB82AB892B09F491
:101AB000D3C0312C212C412C512C32019601225DB6
:101AC0003F4F388F2F8BC601C2969A8F898FF4961D
:101AD000FC8BEB8BB301A2012FEF421A520A620A70
:101AE000720AEF89F88D80819181A281B3814817B4
:101AF00059076A077B070CF47BC0F60184A995A9F6
:101B00000E940830F60197AB86AB892B09F4A4C07C
:101B1000F80180819181A281B38124E4289DF001A4
:101B2000299DF00D1124EF5BFB4FAC01BD014D7FF2
:101B300021E030E0452B462B472B11F030E020E030
:101B400033A322A324E4289DF001299DF00D112444
:101B5000EF5BFB4F0197A109B10921E030E002974B
:101B6000A105B10510F030E020E035A324A3D70192
:101B7000A959BB4FF801349684E001900D928A95E3
:101B8000E1F784E4889DF001899DF00D1124EF5B5D
:101B9000FB4F868D978DA0A1B1A1B7FF58C0B0951E
:101BA000A095909581959F4FAF4FBF4F82AF93AF58
:101BB000A4AFB5AF168E178E10A211A280E06A9660
:101BC0000FB6F894DEBF0FBECDBFDF91CF911F914E
:101BD0000F91FF90EF90DF90CF90BF90AF909F90CC
:101BE0008F907F906F905F904F903F902F900895CF
:101BF000E98DFA8D808191819C01220D331D3A8BF4
:101C0000298B80E1F801DE01119601900D928A95F1
:101C1000E1F7005F1F4F49895A89BE016F5F7F4F0F
:101C2000ED89FE8984819581A5DAEB89FC89808123
:101C30009181E989FA8922813381820F931FEB898F
:101C4000FC8991838083F4E02F0E311C43CF12AEC8
:101C500013AE14AE15AEB2CFC501B40120DA81E0E7
:101C6000AECFCF92DF92EF92FF92CF93DF9310929D
:101C7000C90424E4269FF001279FF00D1124EF5B97
:101C8000FB4F15A614A630E020E0D12CC12CDF01BB
:101C90001A96C1E0D0E0C416D506F4F024E4269FDD
:101CA000F001279FF00D1124EF5BFB4F13A612A646
:101CB00011AE10AEDF01DE961D921D921D921C9298
:101CC000139782E090E0938B828BDF91CF91FF900E
:101CD000EF90DF90CF900895ED91FC911197E20F76
:101CE000F31FE280F3801E141F0454F4E480F58097
:101CF000F782E682F186E08613861286D183C0835E
:101D0000EFEFCE1ADE0A225F3F4FC5CF24E4269FB5
:101D1000F001279FF00D1124EF5BFB4F138A128A0D
:101D20004CCB24E4269FF001279FF00D1124EF5B9C
:101D3000FB4F8289938981309105C8F085309105E8
:101D400018F0059769F008958FEF9FEFDC01828FFF
:101D5000938FA48FB58F85E090E0938B828B08954D
:101D60008FEF9FEFDC01828F938FA48FB58F089543
:101D700024E4249FD001259FB00D1124AF5BBB4FFD
:101D80002EE0AC01249FC001259F900D11241A96CE
:101D9000ED91FC91E80FF91F81E08093C9048285E1
:101DA000938591878087408551852681378181E0A1
:101DB00090E04217530711F090E080E09183808318
:101DC00008952F923F924F925F926F927F928F92DF
:101DD0009F92AF92BF92CF92DF92EF92FF920F93BA
:101DE0001F93CF93DF93CDB7DEB7C055D1090FB6A0
:101DF000F894DEBF0FBECDBF9EAF8DAF4BA75CA7E3
:101E00006DA77EA76801790184E4809FF001819F1E
:101E1000F00D1124EF5BFB4F2285338523963FAFF6
:101E20002EAF239782899389029761F486A597A59F
:101E3000A0A9B1A9892B8A2B8B2BC9F584E090E04E
:101E4000938B828B84E48C9DF0018D9DF00D112489
:101E5000EF5BFB4F828993898230910509F037C28D
:101E600082AD93ADA4ADB5AD22242394312C1816C8
:101E700019061A061B060CF42FC2C05BDF4F0FB603
:101E8000F894DEBF0FBECDBFDF91CF911F910F91B0
:101E9000FF90EF90DF90CF90BF90AF909F908F908A
:101EA0007F906F905F904F903F902F90089584891E
:101EB00095894DAD5EAD8417950721F606A917A942
:101EC00018AE1FAA1BAA1CAA1DAA1EAA1F01CF0179
:101ED0008E9627969FAF8EAF2797DF01D2962996D1
:101EE000BFAFAEAF2997F8962B96FFAFEEAF2B970B
:101EF00091012A5D3F4F2D963FAF2EAF2D97A10147
:101F00004E5D5F4F2F965FAF4EAF2F970A9761964A
:101F10009FAF8EAF61972796EEADFFAD279780817B
:101F20009181A281B3812BA93CA94DA95EA9281753
:101F300039074A075B0744F081E090E0D101D99668
:101F40009C938E93D8977ECF2996AEADBFAD29973F
:101F5000ED91FC912FA938ADE20FF31F428153811F
:101F60005AAF49AF50815FAF818121968FAF2197E2
:101F70002B96AEADBFAD2B978D919C91892B21F106
:101F80002D96EEADFFAD2D9780809180A280B3801D
:101F90001AAB09AB5FA72196FFAD2197F8AB29AD2E
:101FA0003AAD369527953695279525963FAF2EAFB6
:101FB00025971CAE1BAE2596AEADBFAD2597EBADFC
:101FC000FCADEA17FB070CF149AD5AAD6FAD219698
:101FD0007FAD2197C8010E942D3189AD9AAD8C7FCC
:101FE000080F191F2BA93CA94DA95EA92F5F3F4FD0
:101FF0004F4F5F4F2BAB3CAB4DAB5EAB4FA958ADDA
:102000004C5F5F4F58AF4FAB86CF2F96AEADBFAD95
:102010002F978D919C91892B71F1EFA5F8A94080A4
:10202000518062807380A3019201C501B4010E94B6
:102030004C25181664F0A9A9BAA92D913D914D918E
:102040005C91C501B4010E94EE261816BCF1A301F3
:102050009201C501B4010E944C2587FF0CC0E9A97B
:10206000FAA92081318142815381C501B4010E94C6
:102070004C25882319F16196AEADBFAD61978D9166
:102080009C91892B09F445C0EFA5F8A940805180A7
:1020900062807380A3019201C501B4010E94EE2603
:1020A00018161CF5A9A9BAA92D913D914D915C91E5
:1020B000C501B4010E944C2518165CF184E48C9D86
:1020C000F0018D9DF00D1124EF5BFB4F868D978DF8
:1020D000A0A1B1A1892B8A2B8B2B69F183E090E021
:1020E000938B828B81E090E02CC0A3019201C5010B
:1020F000B4010E944C2581110CC0E9A9FAA92081E4
:10210000318142815381C501B4010E944C2587FD74
:10211000D5CF2BAD3CAD2F5F3F4F3CAF2BAF49A987
:102120005AA94C5F5F4F5AAB49AB8FA598A904964B
:1021300098AB8FA740CF84E090E0938B828B86ADE5
:1021400097AD93A782A77ECEEBADFCAD8081918148
:10215000F401EE0FFF1FEE0FFF1FE80FF91FA08124
:10216000B1818C9181110AC0FFEF8F1A9F0AAF0ACB
:10217000BF0A8DA29EA2AFA2B8A68FC18330A1F3E1
:102180000280F381E02D2FA938ADE20FF31F80818B
:1021900091819AAB89AB892B39F34F5F5F4F6F4FBA
:1021A0007F4F49875A876B877C879E01235E3F4F0D
:1021B000AE01475D5F4F64E070E0C8010E94E20736
:1021C0008111D0C18D819E81AF81B8850496A11DFA
:1021D000B11D8D839E83AF83B8874D8D5E8DBE010B
:1021E0006B5D7F4F8F8D98A10E942D318BA19CA19B
:1021F000009761F06D8D7E8DA5E2B0E0AC0FBD1F44
:102200006A0F7B1F49A15AA10E942D311CAA1BAA4B
:10221000412C512C3201E9A9FAA980819181A28136
:10222000B381481659066A067B060CF09DCFE9A9D2
:10223000FAA9848195812BA93CA9280F391F38ABB5
:102240002FA7D90112966D917C919E01235E3F4F7D
:10225000AE01475D5F4FC8010E94E207811182C154
:10226000EFA5F8A982819381092E000CAA0BBB0B64
:102270004D815E816F817885840F951FA61FB71FE2
:102280008D839E83AF83B887608171814D8D5E8D14
:102290008F8D98A10E942D318BA19CA1009761F098
:1022A000AFA5B8A96D917C912D8D3E8D620F731FE6
:1022B00049A15AA10E942D31BFEF4B1A5B0A6B0A4C
:1022C0007B0AEBA9FCA93496FCABEBABA4CF312C79
:1022D000212C049709F0D1CD8EE0EDADFEAD8E9F9F
:1022E00080018F9F100D112423962EAD3FAD2397B3
:1022F000020F131FD80112964D915C91139741154F
:10230000510509F4BACD16968D919C919AA789A78B
:1023100080E1FE013196DF011D928A95E9F7C98AB5
:10232000DA8AEB8AFC8A2114310409F458C084E467
:102330008C9DF0018D9DF00D1124EF5BFB4FDF01B3
:10234000DE968D909D90AD90BC9082AD93ADA4AD86
:10235000B5AD88169906AA06BB0609F040C0F8017B
:10236000848195810084F185E02D349624E0DE019E
:10237000559601900D922A95E1F72D893E89285FA7
:102380003F4F3E8B2D8BD80118966D917C911997FC
:10239000260F371F19963C932E93189718962D9158
:1023A0003C911997480F591F241B350B37FD06C068
:1023B000820F931F19969C938E93189784E48C9D9B
:1023C000F0018D9DF00D1124E158FB4FB1E08B1A07
:1023D0009108A108B10880829182A282B3829E01F5
:1023E0002B5E3F4FAE01475D5F4F64E170E0C80177
:1023F0000E94E2078111B6C08CE090E0A0E0B0E05E
:102400008D839E83AF83B8879E01235E3F4FAE01CD
:10241000475D5F4F64E070E0C8010E94E2078111F0
:10242000A1C080E190E0A0E0B0E08D839E83AF8307
:10243000B8874D8D5E8DBE01655D7F4F8F8D98A1F4
:102440000E942D318BA19CA1009761F06D8D7E8D36
:10245000EBE2F0E0EC0FFD1F6E0F7F1F49A15AA1C8
:102460000E942D311DA21EA21FA218A62DAD3EADA9
:10247000220F331F38AF2FAB24E42C9DC0012D9DBC
:10248000900D11248F5B9B4FAC014C5F5F4F5AAF97
:1024900049AFDC011896BCAFABAF8DA09EA0AFA03A
:1024A000B8A449855A856B857C85E9ADFAAD8081F4
:1024B0009181A281B38188169906AA06BB060CF405
:1024C00043CE452B462B472B09F4D7CC8AE190E02D
:1024D000A0E0B0E089839A83AB83BC832DAD3EAD91
:1024E000C901330FAA0BBB0B8D879E87AF87B88BB3
:1024F0004D895E89BE016F5F7F4F8F89988D0E94E5
:102500002D318B8D9C8D009761F06D897E8941E026
:1025100050E04C0F5D1F640F751F498D5A8D0E944E
:102520002D3189A59AA5D80117969C938E9316975D
:1025300011961C921E92232809F49FCC84E48C9D52
:10254000F0018D9DF00D1124E158FB4F80819181A8
:10255000A281B3810196A11DB11D80839183A283C5
:10256000B3838BCC232809F088CC84E48C9DF001C4
:102570008D9DF00D1124EF5BFB4F81E090E095A75E
:1025800084A785E090E0938B828B77CCCF92DF920B
:10259000EF92FF920F931F9324E4269FF001279F51
:1025A000F00D1124EF5BFB4F228933892115310592
:1025B00009F452C06B017C0121303105B1F482A5D0
:1025C00093A59C012F5F3F4F33A722A7092E000C34
:1025D000AA0BBB0B028D138D248D358D80179107AF
:1025E000A207B307C9F5C7013CDB84E48C9DF00169
:1025F0008D9DF00D1124EF5BFB4F8289938903972A
:1026000059F582A593A59C012F5F3F4F33A722A7C1
:10261000092E000CAA0BBB0B468D578D60A171A132
:1026200084179507A607B707BCF086AD97AD93A7AB
:1026300082A784E090E0938B828B82AD93ADA4ADB2
:10264000B5AD181619061A061B0634F4EE5BFF4FDB
:1026500081E090E0918380831F910F91FF90EF9034
:10266000DF90CF90089524E4269FF001279FF00D7E
:102670001124EF5BFB4F828993890497B1F482A503
:1026800093A5019693A782A7092E000CAA0BBB0B5A
:1026900046895789608D718D84179507A607B707FE
:1026A00021F485E090E0938B828B08952F923F92E6
:1026B0004F925F926F927F928F929F92AF92BF9252
:1026C000CF92DF92EF92FF920F931F93CF93DF93FE
:1026D000CDB7DEB72E970FB6F894DEBF0FBECDBFD5
:1026E000DC0149835A836B837C83290184E4849FC2
:1026F000F001859FF00D1124EF5BFB4F228833889A
:10270000C1010497029708F0D5C011961C921E9241
:1027100013961C921E92129715861486912C812C6A
:1027200090E080E08F019F01205F3F4F38872F832B
:102730003F013CE0630E711CBF01625F7F4F7A87EF
:1027400069873A96FC87EB87EF81F8852081318194
:10275000F30140815181E985FA85A080B18084151B
:1027600095050CF445C011965C934E9313963C93DB
:102770002E9312971596BC92AE921497452BF9F4AE
:10278000F5E02F163104D9F41092C904F801828DB6
:10279000938DA48DB58DAE014F5F5F4F64E070E007
:1027A0008F3F9F4FAF4FBF4F09F079C080E290E05D
:1027B000E0D769817A818B819C81A201A7DA2E966C
:1027C0000FB6F894DEBF0FBECDBFDF91CF911F9142
:1027D0000F91FF90EF90DF90CF90BF90AF909F90C0
:1027E0008F907F906F905F904F903F902F900895C3
:1027F000EB85FC8560817181FB01E80DF91DFE8789
:10280000ED8760817181672B89F5E084F1846281B5
:1028100073817E836D83668177816A01E3E0CC0CEE
:10282000DD1CEA95E1F72C0D3D1D440F551F4A0DA7
:102830005B1DFA0191838083F301408151814F5FD9
:102840005F4F51834083F901F382E282ED85FE857B
:1028500073876287E616F70670F46E197F09F9012F
:102860007183608315821482178216820196FEE0BE
:102870008F0E911C69CFED85FE85C480D5804D817A
:102880005E814C0D5D1D4E195F09F9015183408336
:102890006C197D0975836483D782C682E7CF8FE187
:1028A00090E067D7F80113A612A681E090E0938B21
:1028B000828B85CF1586148611961C921E921396D4
:1028C0001C921E9212977BCFEF92FF920F931F9351
:1028D000CF93DF937C018B01EA010E94951C81114B
:1028E0001EC08091D7029091D802049711F5DF9114
:1028F000CF911F910F91FF90EF90089528ED38EB45
:1029000045E050E060E070E0CB010E944D1FAE0159
:10291000B801C7010E945B1FC8010E94261F809159
:10292000CA049091CB04892BE1F68881882331F386
:10293000D8CF83E090E09093D8028093D702D7CF8E
:10294000CF93DF932091D7023091D8022430310504
:1029500041F0EB010E945B1FCE01DF91CF910C94FF
:10296000261FDF91CF9108950C9459230C944E2388
:102970000C943C230C94361F0C94E022089570E0D4
:1029800060E090E080E0ACC70895AF92BF92CF9234
:10299000DF92EF92FF920F931F93CF93DF931F92DB
:1029A0001F92CDB7DEB75C018B0169017A0190E01F
:1029B00080E0C114D104E104F10469F40F900F9098
:1029C000DF91CF911F910F91FF90EF90DF90CF900B
:1029D000BF90AF9008959C2D8D2DC114D10421E09E
:1029E000E206F10410F09FEF8FEF9E012F5F3F4F43
:1029F000492F582FB801C5010E94E8238F3F98073F
:102A0000E9F229813A81C21AD30AE108F108020FDA
:102A1000131FCFCF02978431910540F481569C4F0C
:102A2000FC018081082E000C990B08958FEF9FEF19
:102A30000895CF93DF93EC0170E060E06C177D07A1
:102A40001CF0DF91CF910895072E000C880B990B95
:102A50000E94EB2520E030E0A9010E94D52420E06F
:102A600030E0A9010E94D52420E030E040E450E4A9
:102A70000E94D52420E030E040E450E40E94D424B9
:102A80000E94B8256F5F7F4FD9CFCF93DF9380919E
:102A9000CE049091CF040E94D22BEC018091D204FD
:102AA0009091D304C6DF8091CC049091CD040E9414
:102AB000D22B019741F58091D0049091D104CD2B78
:102AC00041F58F3F9F4769F48091D6049091D704D8
:102AD00001969093D7048093D6041092D10410925B
:102AE000D0048091D0049091D10401969093D104A8
:102AF0008093D00481E090E09093D5048093D40437
:102B0000DF91CF9108958091D0049091D1042197C5
:102B1000C1F28130904869F48091D8049091D90431
:102B200001969093D9048093D8041092D104109206
:102B3000D0048091D0049091D10401979093D10456
:102B40008093D0048FEF9FEFD7CFCF93DF93809107
:102B5000CC049091CD040E94D22BEC018091D20440
:102B60009091D30466DF8091CE049091CF040E94AF
:102B7000D22B019741F58091D0049091D1042197F7
:102B800041F58F3F9F4769F48091D6049091D70417
:102B900001969093D7048093D6041092D10410929A
:102BA000D0048091D0049091D10401969093D104E7
:102BB0008093D00481E090E09093D5048093D40476
:102BC000DF91CF9108958091D0049091D104CD2BC5
:102BD000C1F28130904869F48091D8049091D90471
:102BE00001969093D9048093D8041092D104109246
:102BF000D0048091D0049091D10401979093D10496
:102C00008093D0048FEF9FEFD7CFCF93DF93809146
:102C1000DC049091DD040E94D22BEC018091E00451
:102C20009091E10406DF8091DA049091DB040E9428
:102C3000D22B019771F48091DE049091DF04CD2BAB
:102C400071F401969093DF048093DE04DF91CF91BD
:102C500008958091DE049091DF04219791F301970C
:102C6000F1CFCF93DF938091DA049091DB040E943F
:102C7000D22BEC018091E0049091E104DADE8091A6
:102C8000DC049091DD040E94D22B019771F48091B5
:102C9000DE049091DF04219771F401969093DF0494
:102CA0008093DE04DF91CF9108958091DE049091AE
:102CB000DF04CD2B91F30197F1CFCF93DF93809178
:102CC000EA049091EB040E94D22BEC018091EE0477
:102CD0009091EF04AEDE8091E8049091E9040E94A7
:102CE000D22B019771F48091EC049091ED04CD2BDF
:102CF00071F401969093ED048093EC04DF91CF91F1
:102D000008958091EC049091ED04219791F301973F
:102D1000F1CFCF93DF938091E8049091E9040E9472
:102D2000D22BEC018091EE049091EF0482DE809131
:102D3000EA049091EB040E94D22B019771F48091E8
:102D4000EC049091ED04219771F401969093ED04B9
:102D50008093EC04DF91CF9108958091EC049091E1
:102D6000ED04CD2B91F30197F1CFAF92BF92CF92AB
:102D7000DF92EF92FF920F931F93CF93DF93CDB724
:102D8000DEB75C016B017A01F90120E030E040E838
:102D90005FE360817181828193810E944C25811162
:102DA00027C0F801A081EEE0EA9FD0011124A453CE
:102DB000BB4F14968D919C91D5018D939C93D80116
:102DC0008C91E89FD0011124A453BB4F1A968D918A
:102DD0009C91D6018D939C93D8018C91E89FF00132
:102DE0001124E453FB4F84859585F70191838083FB
:102DF000DF91CF911F910F91FF90EF90DF90CF90D7
:102E0000BF90AF9008958F929F92CF92DF92EF92F2
:102E1000FF920F931F93CF93DF93CDB7DEB7790166
:102E200020E030E040E85FE3D7016D917D918D9126
:102E30009C910E944C25882309F46CC0D801EC9128
:102E4000D6018C9190E02EE0D22EDE9EF00111246E
:102E5000E453FB4F91838083D801EC91D4018C9192
:102E600090E0DE9EF0011124E453FB4F93838283B4
:102E7000D801EC91DE9EF0011124E453FB4F8081D8
:102E8000918160E00E94692BD801EC91DE9EF001F7
:102E90001124E453FB4F8281938160E00E94692BEF
:102EA000D801EC91DE9EF0011124E453FB4F8081A8
:102EB000918161E00E94A52BD801EC91DE9EF0018A
:102EC0001124E453FB4F8281938161E00E94A52B82
:102ED000D801EC91DE9EF0011124E453FB4F1386E0
:102EE0001286EC91DE9EF0011124E453FB4F15860F
:102EF00014868C91813009F446C070F1823009F457
:102F000057C080E090E0A0E8BFE3F70180839183A1
:102F1000A283B38320E030E040E85FE3D7016D9106
:102F20007D918D919C910E944C2581110AC0D80100
:102F3000EC91BEE0EB9FF0011124E453FB4F1186AE
:102F40001086DF91CF911F910F91FF90EF90DF904E
:102F5000CF909F908F9008958091CC049091CD0454
:102F600059DD41E050E065E475E10E94562780910B
:102F7000CE049091CF044EDD41E050E065EA75E16A
:102F80000E945627BECF8091DA049091DB0442DD87
:102F900041E050E065E076E10E9456278091DC0434
:102FA0009091DD0437DD41E050E061E376E1E8CF68
:102FB0008091E8049091E9042DDD41E050E06DE559
:102FC00076E10E9456278091EA049091EB0422DD7D
:102FD00041E050E069E876E1D3CF40E855E260E0B7
:102FE00070E090E080E000C08130910579F01CF441
:102FF000892B39F008958230910561F0039771F0C3
:10300000089526E08BE295E00C94C42C26E088EC31
:1030100095E0FACF26E085E696E0F6CF26E082E05E
:1030200097E0F2CF1F920F920FB60F9211240BB6BA
:103030000F922F933F934F935F936F937F938F9351
:103040009F93AF93BF93EF93FF938FE89DEF909380
:103050002501809324010E942224FF91EF91BF91CA
:10306000AF919F918F917F916F915F914F913F9120
:103070002F910F900BBE0F900FBE0F901F901895C1
:103080008FE89DEF9093250180932401A3E7B0E0A2
:103090008C918E7F8C93E0E2F1E080818C7F808345
:1030A000E1E2F1E08081877E80838081846080839B
:1030B00080818C7F80838C9181608C93089581E0E6
:1030C00008958F929F92AF92BF92CF92DF92EF922C
:1030D000FF920F931F93CF93DF935C017B018A01D3
:1030E000C1E0D0E0CE15DF05CCF081E0F5018083B2
:1030F000B801C7010E948323F5019283818390E088
:1031000080E0DF91CF911F910F91FF90EF90DF90C2
:10311000CF90BF90AF909F908F9008956E018FEFEA
:10312000C81AD80AFE01EE0FFF1FE00FF11F8080C2
:1031300091808114910469F063EB73E0C4010E94F3
:103140003D31892B41F4CC0FDD1FC00FD11F1982F7
:103150001882E601C7CF66EB73E0C4010E943D31DF
:10316000892BB9F7EC14FD04A1F36E01E2E0CE0E59
:10317000D11CCC0FDD1FC00FD11F198218821B82FA
:103180001A82E7CF86EF94E0089580E008950F93C8
:103190001F93CF93DF938B01BA01E9011982188243
:1031A0009801012E000C440B550BFC01818192818A
:1031B000ECDB019641F01983088380E0DF91CF9129
:1031C0001F910F91089581E0F9CF0F931F93CF9333
:1031D000DF931F921F92CDB7DEB7FB018A01B901C1
:1031E0009E012F5F3F4FAF01FC01818192810E94C0
:1031F0009A23019669F089819A81F80191838083ED
:1032000080E00F900F90DF91CF911F910F91089563
:1032100081E0F7CFFC01808108950895089581E051
:10322000FB01808380E00895089510921E050895A3
:10323000FC01818192810C947B23CF93DF9300D09A
:1032400000D000D01F92CDB7DEB7B0E0A0E08983F8
:103250009A83AB83BC83CB01770FAA0BBB0B8D8307
:103260009E83AF83B8879E01275F3F4FAE014F5FBC
:103270005F4F68E070E080910D0590910E0587DF4B
:10328000811110C081E029853A852830310509F483
:1032900080E02A960FB6F894DEBF0FBECDBFDF9157
:1032A000CF91089581E0F5CF0F931F93CF93DF93D4
:1032B0001F921F92CDB7DEB78B019E012F5F3F4F4C
:1032C000AC0180910D0590910E0561DF81110EC05A
:1032D00081E029813A812017310709F480E00F90BD
:1032E0000F90DF91CF911F910F91089581E0F7CF5B
:1032F000CF93DF93EC0110921105109210051092FC
:103300001D0510921C05AC0160E070E0CB010E942D
:10331000860EAE0161E070E080E090E00E94860ED3
:1033200080910D0590910E05DF91CF917DCF4F9249
:103330005F926F927F928F929F92AF92BF92CF9245
:10334000DF92EF92FF920F931F93CF93DF931F9221
:103350001F92CDB7DEB78C017C0197FF03C087E0D9
:10336000E80EF11C23E0F594E7942A95E1F7C801F3
:1033700068E070E00E94822F6C010E5F1F4F809109
:103380000B0590910C0580179107D4F480910905E5
:1033900090910A05009731F00E94A43010920C051C
:1033A00010920B05C8010E94083090930A05809383
:1033B0000905892B09F482C010930C0500930B05B5
:1033C00010E000E047C1412C512C3201B12CA12C5E
:1033D00095012E5E3A4FAE014F5F5F4F61E070E0A6
:1033E00080910D0590910E05F0DE811149C0EFEF3F
:1033F0004E1A5E0A6E0A7E0AF0E94F16FFE55F0676
:10340000F1E06F06710444F060911C0570911D0598
:103410008DEE90E012DFD7CF89819A81A80EB91E78
:103420008AE0A816B10409F043C049E050E070E01A
:1034300060E082E195E00E94142460911C05709187
:103440001D05882391F180911A0590E08617970752
:1034500081F4BC018EEE90E0F0DE80911C0590912D
:103460001D050196992790931D0580931C050F5FFC
:103470001F4F0E151F050CF4A6CFCD2809F07CC0F8
:1034800090E080E00F900F90DF91CF911F910F910E
:10349000FF90EF90DF90CF90BF90AF909F908F9074
:1034A0007F906F905F904F9008958FEE90E0B2CF35
:1034B000EAE0AE16B1040CF48BCFDBCF10E000E0F5
:1034C000D8CF0A30110531F549E050E070E060E0F6
:1034D00082E195E00E94142460911C0570911D0505
:1034E0008823A9F080911A0590E08617970741F686
:1034F000BC018EEE90E0A1DE80911C0590911D052F
:103500000196992790931D0580931C05B9CF8FEEE6
:1035100090E02BC00A3011050CF0B2CF98012E5E5E
:103520003A4FAE014F5F5F4F61E070E080910D0553
:1035300090910E054ADE8111A3CF89819A81080FEF
:10354000191FFFEFCF1ADF0AEF0AFF0A80E9C8163A
:103550008FE5D80681E0E806F1040CF4B2CF609163
:103560001C0570911D058DEE90E067DE10E000E017
:10357000C12CD12C7601D2CFC12CD12C760110E0F8
:1035800000E0CCCF412C512C3201B12CA12C4801B0
:1035900093E0880C991C9A95E1F7209109053091E8
:1035A0000A05C501880D991D280F391FAE014F5F0F
:1035B0005F4F61E070E080910D0590910E0505DE92
:1035C00081115ECFEFEF4E1A5E0A6E0A7E0A60919D
:1035D0001C0570911D058DEE90E0F0E94F16FFE59A
:1035E0005F06F1E06F0671040CF043C089819A8197
:1035F000A80EB91E8AE0A816B10409F041C049E03E
:1036000050E0B4018091090590910A050E941424AC
:1036100060911C0570911D05882349F18091090571
:1036200090910A05880E991EF401808590E0861716
:10363000970781F4BC018EEE90E0FFDD80911C05C0
:1036400090911D050196992790931D0580931C0567
:103650000F5F1F4F0E151F050CF494CFC114D1043A
:1036600009F081C08091090590910A050BCF8FEE7A
:1036700090E0E3DD412C512C3201B12CA12C8DCFF7
:10368000FAE0AF16B1040CF488CFE4CF8FEE90E0EF
:10369000D4DDF12CE12C812C912C540197012E5E6C
:1036A0003A4FAE014F5F5F4F61E070E080910D05D2
:1036B00090910E058ADD8111E3CE8FEF881A980A6A
:1036C000A80AB80A60911C0570911D058DEE90E066
:1036D000E0E98E16EFE59E06E1E0AE06B104C4F621
:1036E00089819A81E80EF91EFAE0EF16F104A9F536
:1036F00049E050E070E060E082E195E00E9414242F
:1037000060911C0570911D05882309F4BFCF80913D
:103710001A0590E08617970709F0A4CFBC018EEE3A
:1037200090E08BDD83E0000F111F8A95E1F7809117
:10373000090590910A05A60162E175E0800F911FCD
:103740000E942D3180911C0590911D0501969927AD
:1037500090931D0580931C0585CF8AE0E816F1043F
:103760000CF49CCF7FCF812C912C5401F12CE12CB7
:1037700095CFCF92DF92EF92FF920F931F93CF934B
:10378000DF931F92CDB7DEB76C017B018A01452B19
:1037900039F0AB0170E060E0C8010E941024898319
:1037A000B701C6014ADD81110DC00115110551F0A7
:1037B000B701C80179DD811105C061E070E0CE017B
:1037C000019672DD0F90DF91CF911F910F91FF90C5
:1037D000EF90DF90CF900895CF92DF92EF92FF921B
:1037E000CF93DF9300D000D01F921F92CDB7DEB7EA
:1037F0006B01F12CE12CC982DA82EB82FC822D83F1
:103800003E834F835887AE014F5F5F4F68E070E0A3
:10381000B0DF28960FB6F894DEBF0FBECDBFDF91A4
:10382000CF91FF90EF90DF90CF9008958F929F926D
:10383000AF92BF92CF92DF92EF92FF920F931F93BE
:10384000CF93DF937C01EB01CA01690170DD009722
:10385000B1F42FEF3FEFA90161E070E0C701BCDFD9
:10386000C1E08C2FDF91CF911F910F91FF90EF90CE
:10387000DF90CF90BF90AF909F908F900895FC0104
:1038800081909190A190B190BF01FCE1EF16F104FD
:1038900079F4A5019401CE010E94EC0CC82FA5017A
:1038A0009401882369F061E070E0C70195DFD9CF0A
:1038B00095018401AB01B601CE010E94EF0AEECF63
:1038C00070E060E0C701DF91CF911F910F91FF90F1
:1038D000EF90DF90CF90BF90AF909F908F907CCF74
:1038E0000F931F93CF93DF93EC018B014BDC9093ED
:1038F0000E0580930D050097A9F0A801BE01E1DB3C
:10390000EC01892B49F080910D0590910E0585DC25
:1039100010920E0510920D05CE01DF91CF911F91EF
:103920000F910895C2ECD3E0EECF80910D059091F8
:103930000E0570CC2F923F924F925F926F927F92C2
:103940008F929F92AF92BF92CF92DF92EF92FF92AF
:103950000F931F93CF93DF93CDB7DEB769970FB661
:10396000F894DEBF0FBECDBF209111052223F9F0E0
:103970005B8B4A8B6E877F87888B998B9A01AB0113
:10398000BC01CE0101967C010E94561310E048E074
:10399000242E312CE88EF98E89819A811816190609
:1039A0000CF451C2112319F08A899B89A1DC699614
:1039B0000FB6F894DEBF0FBECDBFDF91CF911F9140
:1039C0000F91FF90EF90DF90CF90BF90AF909F90BE
:1039D0008F907F906F905F904F903F902F900895C1
:1039E000EB81FC818C859D8533E0880F991F3A958A
:1039F000E1F7E80FF91F808191819093080580938A
:103A000007052481358142815381509306054093F7
:103A10000505468157815093040540930305820FA5
:103A2000931F9C01990F440B550B2C8B3D8B4E8B98
:103A30005F8B812C912C54018C899D89AE89BF8923
:103A400088169906AA06BB0640F18C859D85880FCD
:103A5000991FED81FE81E80FF91F4E855F8568890A
:103A60007989808191810E94B80EAC85BD851196BF
:103A7000BD87AC8789819A81EC85FD85E817F907B8
:103A80000CF4AECF2A893B894E855F856889798998
:103A9000888D998D0E9456137FCF1F8260910705F4
:103AA00070910805CB01072E000CAA0BBB0B8401FB
:103AB0007501640134E0C30ED11CE11CF11CC81671
:103AC000D906EA06FB0608F0B3C02091050530913F
:103AD0000605A4014C5F5F4F240F351FF901C0801C
:103AE000D12CF12CE12C24013501F5E04F0E511CB5
:103AF000611C711C481659066A067B0608F0A3C0B3
:103B00002091050530910605F8013596E20FF31F67
:103B10002081D22A2401350126E0420E511C611C6D
:103B2000711C481659066A067B0608F097C020915A
:103B3000050530910605F8013696E20FF31F208146
:103B4000E22A2401350137E0430E511C611C711C2F
:103B5000481659066A067B0608F08BC020910505B9
:103B600030910605F8013796E20FF31F20812601F8
:103B70003701722A7501640148E0C40ED11CE11CB2
:103B8000F11C8C159D05AE05BF0508F41DC18816F6
:103B90009906AA06BB0608F077C0809105059091AA
:103BA0000605800F911F68E070E07EDBE09107055D
:103BB000F09108059F010F2E000C440B550BD3010B
:103BC000C2018C0D9D1DAE1DBF1D281739074A0768
:103BD0005B0708F478C0C216D306E406F50608F0C1
:103BE0005DC080910505909106059801285F3F4FC3
:103BF000820F931FB20158DB809107059091080551
:103C0000AC01092E000C660B770BC416D506E60630
:103C1000F70608F04DC0085F1F4F80910505909191
:103C20000605800F911FA20170E060E0F9D5A7C0E2
:103C300044E050E0461B570B480D591D20910305E9
:103C40003091040549CFE5E0F0E0E61BF70BE00F0B
:103C5000F11F209103053091040558CFE6E0F0E014
:103C6000E61BF70BE00FF11F2091030530910405CF
:103C700064CFE7E0F0E0E61BF70BE00FF11F2091C7
:103C800003053091040570CF9801261B370B8091F6
:103C9000030590910405820F931F85CF91012E1B80
:103CA0003F0B200F311F8091030590910405A0CF99
:103CB000D101A81BB90BCD01080F191F8091030575
:103CC00090910405AECFBF0168507109601B710B64
:103CD000C216D306E406F50608F062C08091050519
:103CE000909106059801285F3F4F820F931FDCDA01
:103CF0008091070590910805B101681B790B600F51
:103D0000711F640D751D8091030590910405CCDA37
:103D10008091070590910805AC0148505109FA01BE
:103D2000E01BF10BAC01092E000C660B770BC416DF
:103D3000D506E606F70608F03DC08091050590918E
:103D400006059801285F3F4F820F931FAF0170E077
:103D500060E066D58F832091070530910805F10159
:103D6000E21BF30B9F01200F311F240D351D50E086
:103D700040E0682F80910305909104053DD58F8325
:103D800061E070E0CE0107968FDA182F38E0430E1D
:103D9000511C611C711C840C951CA61CB71C4CCEBC
:103DA00091012E1B3F0B200F311F80910305909135
:103DB00004059BCF9101281B390B200F311F8091E7
:103DC000030590910405C0CF88169906AA06BB0684
:103DD00068F5601B710B8091050590910605800FB9
:103DE000911F62DA8091070590910805B101681B67
:103DF000790B600F711F640D751D80910305909103
:103E0000040552DA8091070590910805AC01092E4E
:103E1000000C660B770BC416D506E606F70608F409
:103E2000FACE9101281B390BC90146CFC801861B68
:103E3000970B2091030530910405B201685F7F4F15
:103E4000820F931FDECF1D861C8614CECF93DF9387
:103E5000EC01AC0160E070E0CB016CDDAE0161E033
:103E600070E080E090E0DF91CF9164CDCF938091BE
:103E70000D0590910E0589D9C82F81110BC060E006
:103E800070E0CB010E94B10961E070E080E090E059
:103E90000E94B1098C2FCF9108950F931F93890130
:103EA0009A01AB01BC0180910D0590910E05B6D928
:103EB0001F910F9108954F925F926F927F928F9210
:103EC0009F92AF92BF92CF92DF92EF92FF920F93A9
:103ED0001F93CF93DF93CDB7DEB763970FB6F894F8
:103EE000DEBF0FBECDBF6C018B015A018091110561
:103EF000882309F43DC080911105882309F442C04C
:103F0000809110051A821982882309F4C0C0F0E953
:103F10004F2EFFE55F2E66246394712CF12CE12C6B
:103F2000970127503B4FAE014F5F5F4F61E070E05C
:103F300080910D0590910E0548D9982E811169C088
:103F400089819A81E80EF91EE114F10409F461C037
:103F500081E0481A51086108710859F560911C0503
:103F600070911D058DEE90E068D91A82198251C0BA
:103F700061E175E080910D0590910E0550D988237F
:103F800009F4B9CF63960FB6F894DEBF0FBECDBF6C
:103F9000DF91CF911F910F91FF90EF90DF90CF9025
:103FA000BF90AF909F908F907F906F905F904F9059
:103FB0000895AAE0EA16F10409F063C049E050E070
:103FC00070E060E089EF94E02FD460911C0570915F
:103FD0001D05882309F452C08091010590E08617E1
:103FE000970719F6BC018EEE90E027D988E0E9EF3B
:103FF000F4E0DE01199601900D928A95E1F7809127
:104000001C0590911D050196992790931D0580939D
:104010001C0581E029813A81121613060CF080E01C
:104020009110CAC2882309F4ADCF80911005811187
:1040300004C019861A861B861C8689859A85AB85DD
:10404000BC8580319105A105B10508F09BCFFC012D
:104050008827E25DFF4D8F4F0C94B72FAE206D2265
:10406000DC22C21FB221E5219E20A6208220C1228F
:10407000B022BD22C21FC21FC21F6D208FEE90E072
:1040800073CFBAE0EB16F1040CF44ACFC2CFF12C97
:10409000E12CE8E06E2E712C29E030E02C0F3D1F62
:1040A0002E0D3F1DAE014F5F5F4FB3016E197F09AB
:1040B00080910D0590910E0588D8982E29813A811E
:1040C000811109C0E20EF31EE114F10421F0E8E0D1
:1040D000EE16F1040CF381E09FCFD6011696ED9118
:1040E000FC9180819181A281B38189839A83AB8382
:1040F000BC83AE014F5F5F4F64E070E085E190E00C
:1041000038DB40CF8D859E8512D92FEF3FEFA90177
:1041100061E070E0009771F0FC01C080D180E28026
:10412000F380A801C701B6010E94310EA7019601D4
:1041300070E060E08DE190E04FDB24CF4D855E853F
:104140009801B6018BE190E071DB1CCF4D855E8557
:104150002FEF3FEFB6018CE190E0F6CFD601149639
:10416000ED91FC9100811181F80182809380A08003
:10417000B18070E1472E512C612C712C49825A82FA
:104180006B827C8288E090E0A0E0B0E08D839E832B
:10419000AF83B8879E012F5E3F4FAE014F5F5F4FE9
:1041A00068E070E080910D0590910E050E94C7189F
:1041B0008823D9F010E000E0C80163960FB6F894A8
:1041C000DEBF0FBECDBFDF91CF911F910F91FF904A
:1041D000EF90DF90CF90BF90AF909F908F907F90A7
:1041E0006F905F904F900C94A43089899A890897BA
:1041F00009F7D801ED90FC90B8E0EB0EF11CEE0C45
:10420000FF1CEE0CFF1CC7010E9408308C01892B9B
:1042100089F249825A826B827C82C7010F2C000C82
:10422000AA0BBB0B8D839E83AF83B8879E012F5E45
:104230003F4FAE014F5F5F4F68E070E080910D052A
:1042400090910E050E94C7188111B6CF89899A896D
:10425000089709F0B1CFD6011296ED91FC914081FB
:10426000518162817381D8014D935D936D937C93ED
:104270001397448155816681778114964D935D93A0
:104280006D937C9317974085518562857385189649
:104290004D935D936D937C931B9784859585A6853F
:1042A000B785F80184879587A687B787108A118A12
:1042B000128A138A84E090E0A0E0B0E0848B958BB2
:1042C000A68BB78B8091D7029091D802B0E0A0E086
:1042D000808F918FA28FB38FC5010B2C000CAA0B7E
:1042E000BB0B848F958FA68FB78FF401D801909662
:1042F00090E080E08A159B055CF19E012F5E3F4FA8
:10430000A801B70180910D0590910E050E94C71874
:10431000811152CF89899A89E816F90609F04CCFA4
:10432000A70170E060E0C8017BD28B8B9E012F5EFD
:104330003F4FAE014D5E5F4F61E070E080910D0533
:1043400090910E050E94C71881E08093100534CF2C
:104350004191519170E060E04D935D936D937D9339
:104360000196C8CF8D859E85AF85B8890097A10538
:10437000B10521F481E080930F0504CE0E949719C6
:10438000009781F481E090E0A0E0B0E089839A8317
:10439000AB83BC83AE014F5F5F4F64E070E082E1AE
:1043A00090E0AECEBC01C6010E940B0919821A82B0
:1043B0001B821C82AE014F5F5F4F64E070E082E1C0
:1043C00090E0D7D98823B1F2DDCDD6011496ED91D6
:1043D000FC910190F081E02DE084F1848FEF8983DE
:1043E000E114F10409F472C0D7016D907C90C28091
:1043F000D38070E060E090E080E08615970594F04F
:1044000083E190E00E941D1910E000E08111BACD17
:10441000061517055CF161E070E0CE0101960E947F
:104420005419B0CD9C0143E0220F331F4A95E1F7A8
:10443000F701A281B381A20FB31F1296ED91FC91F7
:104440001397EE0FFF1FEC0DFD1D0190F081E02D85
:1044500016964D915C91E49F9001E59F300DF49F7D
:10446000300D1124620F731F0196C7CFD70112962A
:10447000ED91FC91C80123E0880F991F2A95E1F77F
:10448000E80FF91FA080B180A281B381AA0FBB1FE2
:10449000AC0DBD1D2D913C9186819781289F4001D7
:1044A000299F900C389F900C1124B401C5010E94E3
:1044B0005419582E940150E040E06981C5019CD107
:1044C000898351105FCD0F5F1F4FA2CF70E060E076
:1044D00083E190E00E941D1955CD50E040E070E06E
:1044E00060E081E190E045D981114CCD60E070E061
:1044F000CB010E94D60A8091C904882329F0A80123
:1045000060E070E0CB0116DAA80160E070E0CB015A
:104510000E94DD0961E070E080E090E00E94D60A30
:104520008091C904882331F0A80161E070E080E047
:1045300090E000DAA80161E070E080E090E00E9485
:10454000DD09109211051092100510921D051092B0
:104550001C0580910D0590910E050E94151912CD34
:1045600081E090E09093CB048093CA0450E040E057
:1045700070E060E086E190E0C3CD81E0F5018083EA
:1045800001CD8D859E850E9497192FEF3FEFA901E0
:1045900061E070E0009769F0DC01CD90DD90ED9076
:1045A000FC90C701B6010E94910EA701960170E030
:1045B00060E08EE190E0C0CDC8010E947819E2CCA5
:1045C000CF92DF92EF92FF92CF93DF93EC01C12C59
:1045D000D12C7601C701B6010E94D60AAE01C701EF
:1045E000B601A8D9AE01C701B6010E94DD098091CC
:1045F000090590910A05009731F00E94A4301092AD
:104600000A0510920905CA94CD28CE28CF2879F53D
:1046100080911005F12C882351F050E040E070E0CB
:1046200060E084E190E0A5D8F82E1092100580910A
:104630001105882341F01092110581E090E09093DC
:10464000D8028093D70280910D0590910E050E94AB
:10465000181980910D0590910E050E940D198F2D4E
:10466000DF91CF91FF90EF90DF90CF900895C12C14
:10467000D12C7601C394AECFCF93DF93EC01AC0184
:1046800060E070E0CB010E94C612AE0161E070E014
:1046900080E090E0DF91CF910C94C61260E070E072
:1046A000CB010E94331361E070E080E090E00C9455
:1046B0003313CF92DF92EF92FF920F931F93CF931A
:1046C000DF93EC016A017B0100E010E098010E9499
:1046D000E10E01E010E020E030E0B701A601CE01DC
:1046E0000E94E10EDF91CF911F910F91FF90EF900B
:1046F000DF90CF90089568EE73E080E090E017D6E9
:1047000090E080E0089526E040E050E16EE070E047
:104710008BE295E00E94C42C8BE295E00E94FA2B7C
:10472000892B29F08BE295E00E94142CF5CF90E0C4
:1047300080E00895CF92DF92EF92FF920F931F9344
:10474000CF93DF936B017A01E901198218828BE222
:1047500095E00E94FA2B892B81F18601CC24C39429
:1047600085E6D82E80911E05811112C08BE295E05E
:104770000E94142C85369105A9F7C0921E05F801F8
:10478000D1928F0188819981019699838883EACF9C
:10479000888199818E159F0580F48BE295E00E94B7
:1047A000142C8F3F9807A1F3F80181938F01888122
:1047B0009981019699838883EBCF90E080E0DF9127
:1047C000CF911F910F91FF90EF90DF90CF900895C0
:1047D0000F931F93CF93DF93EA0189018BE295E05A
:1047E0000E94542FF801D183C08390E080E0DF91D4
:1047F000CF911F910F910895DC01A40FB51F420FB7
:10480000531F9D01281B390B2417350710F0862FE5
:104810000895ED91E627F0E0EC51FF4F6491F1CF60
:104820009A01AB016FEFE8CFCF93FC01E60FF71FC2
:10483000E40FF51FC081F4DF91E0C81390E0892FE9
:10484000CF91089580911F0591E0980F90931F05D7
:10485000882349F021E030E03093210520932005A2
:1048600080931F05089578940E943104F8948091F4
:104870001F05815080931F050C94B614DF92EF92B0
:10488000FF920F931F93CF93DF931F92CDB7DEB7A5
:104890001092BC081092BB0880D50E94ED170091C1
:1048A000100310911103F8011182108270E060E092
:1048B00090E080E00E94BF140E9486067894C801B0
:1048C00081569F4F0E94BE1482E090E00E94BA146D
:1048D0001982AE014F5F5F4F62E070E0F8018281A4
:1048E00093810E9464148981882329F081E0F80172
:1048F000EB55FF4F80830E94C414F8940E94401827
:10490000F80180819181892B29F481E0EB55FF4FDB
:104910009081911180E08093BB087894789478011D
:10492000F5EAEF0EF11CDD24D3948091BB088111D0
:1049300012C00E94A40782E090E00E94BC14F89488
:1049400090E080E00F90DF91CF911F910F91FF9049
:10495000EF90DF9008951982AE014F5F5F4F62E0E4
:1049600070E0F801828193810E94A01489818823DC
:1049700011F0F701D082F80180819181892B91F4A7
:1049800081E0F7019081911101C080E08093BC0823
:104990009091BC0881E0911180E08093BB080E9457
:1049A0005F18C3CF81E0F2CF5058BB27AA270ED0A3
:1049B000C4C1B5D130F0BAD120F031F49F3F11F429
:1049C0001EF4AAC10EF4E095E7FB77C1E92FC6D12A
:1049D00080F3BA17620773078407950718F071F41C
:1049E0009EF5F5C10EF4E0950B2EBA2FA02D0B010C
:1049F000B90190010C01CA01A0011124FF27591B24
:104A000099F0593F50F4503E68F11A16F040A22F29
:104A1000232F342F4427585FF3CF4695379527959A
:104A2000A795F0405395C9F77EF41F16BA0B620B99
:104A3000730B840BBAF09150A1F0FF0FBB1F661FE0
:104A4000771F881FC2F70EC0BA0F621F731F841F23
:104A500048F4879577956795B795F7959E3F08F049
:104A6000B3CF9395880F08F09927EE0F9795879508
:104A7000089596D180F09F3740F491110EF4A8C1AB
:104A800060E070E080E89FE3089526F01B16611D4A
:104A9000711D811D18C132C1ECD008F481E0089568
:104AA0000CD04BC143D140F03AD130F021F45F3FFC
:104AB00019F003C151118CC12FC150D198F3992322
:104AC000C9F35523B1F3951B550BBB27AA276217D2
:104AD0007307840738F09F5F5F4F220F331F441F17
:104AE000AA1FA9F333D00E2E3AF0E0E830D091504F
:104AF0005040E695001CCAF729D0FE2F27D0660F3C
:104B0000771F881FBB1F261737074807AB07B0E87A
:104B100009F0BB0B802DBF01FF2793585F4F2AF090
:104B20009E3F510568F0C9C053C15F3FECF3983E0A
:104B3000DCF3869577956795B795F7959F5FC9F7ED
:104B4000880F911D9695879597F90895E1E0660F76
:104B5000771F881FBB1F621773078407BA0720F0EF
:104B6000621B730B840BBA0BEE1F88F7E095089558
:104B700004D06894B1112CC10895F8D088F09F57E3
:104B800090F0B92F9927B751A0F0D1F0660F771F99
:104B9000881F991F1AF0BA95C9F712C0B13081F079
:104BA00016D1B1E0089513C1672F782F8827B85F19
:104BB00039F0B93FCCF3869577956795B395D9F7DA
:104BC0003EF490958095709561957F4F8F4F9F4FE4
:104BD0000895E89409C097FB3EF4909580957095F0
:104BE00061957F4F8F4F9F4F9923A9F0F92F96E939
:104BF000BB279395F695879577956795B795F111AE
:104C0000F8CFFAF4BB0F11F460FF1BC06F5F7F4F4A
:104C10008F4F9F4F16C0882311F096E911C077235C
:104C200021F09EE8872F762F05C0662371F096E865
:104C3000862F70E060E02AF09A95660F771F881F34
:104C4000DAF7880F9695879597F90895A9D080F09F
:104C50009F3740F491110EF0BBC060E070E080E837
:104C60009FEB089526F41B16611D711D811D2BC03D
:104C700045C0990F0008550FAA0BE0E8FEEF161685
:104C80001706E807F907C0F012161306E407F50740
:104C900098F0621B730B840B950B39F40A2661F0B4
:104CA000232B242B252B21F408950A2609F4A14057
:104CB000A6958FEF811D811D089597F99F6780E864
:104CC00070E060E00895882371F4772321F0985014
:104CD000872B762F07C0662311F499270DC09051BA
:104CE000862B70E060E02AF09A95660F771F881F88
:104CF000DAF7880F9695879597F908959F3F31F0D9
:104D0000915020F4879577956795B795880F911DF9
:104D10009695879597F908959FEF80EC0895002464
:104D20000A941616170618060906089500240A9410
:104D300012161306140605060895092E0394000C96
:104D400011F4882352F0BB0F40F4BF2B11F460FF25
:104D500004C06F5F7F4F8F4F9F4F089557FD90584E
:104D6000440F551F59F05F3F71F04795880F97FB2F
:104D7000991F61F09F3F79F08795089512161306E9
:104D80001406551FF2CF4695F1DF08C01616170618
:104D90001806991FF1CF869571056105089408954D
:104DA000E5DFA0F0BEE7B91788F4BB279F3860F4B1
:104DB0001616B11D672F782F8827985FF7CF869535
:104DC00077956795B11D93959639C8F30895E89442
:104DD000BB2766277727CB0197F908954ADF08F4A8
:104DE0008FEF08950BD0A9CF9ADF28F09FDF18F03E
:104DF000952309F062CF90CF1124EACFAFDFA0F363
:104E0000959FD1F3950F50E0551F629FF001729F5F
:104E1000BB27F00DB11D639FAA27F00DB11DAA1F7E
:104E2000649F6627B00DA11D661F829F2227B00DCB
:104E3000A11D621F739FB00DA11D621F839FA00D56
:104E4000611D221F749F3327A00D611D231F849FA6
:104E5000600D211D822F762F6A2F11249F575040FD
:104E60008AF0E1F088234AF0EE0FFF1FBB1F661F98
:104E7000771F881F91505040A9F79E3F510570F051
:104E80001CCFA6CF5F3FECF3983EDCF38695779579
:104E90006795B795F795E7959F5FC1F7FE2B880F4C
:104EA000911D9695879597F908950895883008F093
:104EB00076C0E82FF0E0EE0FFF1FE752FD4F718341
:104EC00060838150873008F03DC0E82FF0E08827EC
:104ED000E359F84D8F4F0C94B72FAA2774277C27DE
:104EE00088279527B627C327809169008C7F482B98
:104EF00040936900E89A089580916900837F440F88
:104F0000551F440F551F482B40936900E99A089597
:104F1000809169008F7C74E0440F551F7A95E1F70A
:104F2000482B40936900EA9A0895809169008F7335
:104F300066E0440F551F6A95E1F7482B40936900DE
:104F4000EB9A089580916A008C7F482B40936A0009
:104F5000EC9A089580916A00837F440F551F440F97
:104F6000551F482B40936A00ED9A089580916A007E
:104F70008F7C24E0440F551F2A95E1F7482B40937E
:104F80006A00EE9A089580916A008F7396E0440F4C
:104F9000551F9A95E1F7482B40936A00EF9A0895C0
:104FA0001F920F920FB60F9211240BB60F922F93F0
:104FB0003F934F935F936F937F938F939F93AF93A1
:104FC000BF93EF93FF93E091DD02F091DE0219951C
:104FD000FF91EF91BF91AF919F918F917F916F91D1
:104FE0005F914F913F912F910F900BBE0F900FBE8D
:104FF0000F901F9018951F920F920FB60F921124C9
:105000000BB60F922F933F934F935F936F937F93C2
:105010008F939F93AF93BF93EF93FF93E091DF0242
:10502000F091E0021995FF91EF91BF91AF919F919F
:105030008F917F916F915F914F913F912F910F9041
:105040000BBE0F900FBE0F901F9018951F920F92DE
:105050000FB60F9211240BB60F922F933F934F93DD
:105060005F936F937F938F939F93AF93BF93EF93D0
:10507000FF93E091E102F091E2021995FF91EF9127
:10508000BF91AF919F918F917F916F915F914F9160
:105090003F912F910F900BBE0F900FBE0F901F905E
:1050A00018951F920F920FB60F9211240BB60F9204
:1050B0002F933F934F935F936F937F938F939F9320
:1050C000AF93BF93EF93FF93E091E302F091E4027B
:1050D0001995FF91EF91BF91AF919F918F917F9122
:1050E0006F915F914F913F912F910F900BBE0F9059
:1050F0000FBE0F901F9018951F920F920FB60F9230
:1051000011240BB60F922F933F934F935F936F939E
:105110007F938F939F93AF93BF93EF93FF93E09110
:10512000D902F091DA021995FF91EF91BF91AF91F9
:105130009F918F917F916F915F914F913F912F91AF
:105140000F900BBE0F900FBE0F901F9018951F92DF
:105150000F920FB60F9211240BB60F922F933F931D
:105160004F935F936F937F938F939F93AF93BF936F
:10517000EF93FF93E091DB02F091DC021995FF9130
:10518000EF91BF91AF919F918F917F916F915F91BF
:105190004F913F912F910F900BBE0F900FBE0F902C
:1051A0001F9018951F920F920FB60F9211240BB6F5
:1051B0000F922F933F934F935F936F937F938F93B0
:1051C0009F93AF93BF93EF93FF93E091E502F0912C
:1051D000E6021995FF91EF91BF91AF919F918F9149
:1051E0007F916F915F914F913F912F910F900BBEE7
:1051F0000F900FBE0F901F9018951F920F920FB631
:105200000F9211240BB60F922F933F934F935F93FE
:105210006F937F938F939F93AF93BF93EF93FF937E
:10522000E091E702F091E8021995FF91EF91BF91AB
:10523000AF919F918F917F916F915F914F913F912E
:105240002F910F900BBE0F900FBE0F901F901895CF
:105250001F920F920FB60F9211242F933F938F93AB
:105260009F93AF93BF938091230590912405A091C4
:105270002505B09126053091220523E0230F2D3717
:1052800058F50196A11DB11D209322058093230599
:1052900090932405A0932505B093260580912705BA
:1052A00090912805A0912905B0912A050196A11D8C
:1052B000B11D8093270590932805A0932905B093ED
:1052C0002A05BF91AF919F918F913F912F910F90A0
:1052D0000FBE0F901F90189526E8230F0296A11D70
:1052E000B11DD2CF3FB7F894809127059091280542
:1052F000A0912905B0912A0526B5A89B05C02F3F8E
:1053000019F00196A11DB11D3FBFBA2FA92F982FEB
:105310008827BC01CD01620F711D811D911D42E0E6
:10532000660F771F881F991F4A95D1F708958F92AE
:105330009F92AF92BF92CF92DF92EF92FF926B015A
:105340007C01D0DF4B015C01C114D104E104F10404
:10535000D9F0D7D5C7DF681979098A099B09683E52
:1053600073408105910580F321E0C21AD108E1085C
:10537000F10888EE880E83E0981EA11CB11CC114B0
:10538000D104E104F10431F7FF90EF90DF90CF906A
:10539000BF90AF909F908F900895789484B582606D
:1053A00084BD84B5816084BD85B5826085BD85B5C9
:1053B000816085BDEEE6F0E0808181608083E1E878
:1053C000F0E01082808182608083808181608083B0
:1053D000E0E8F0E0808181608083E1EBF0E08081B3
:1053E00084608083E0EBF0E0808181608083E1E98C
:1053F000F0E0808182608083808181608083E0E949
:10540000F0E0808181608083E1EAF0E08081826069
:105410008083808181608083E0EAF0E08081816028
:105420008083E1E2F1E0808182608083808181601D
:105430008083E0E2F1E0808181608083EAE7F0E050
:1054400080818460808380818260808380818160AC
:1054500080838081806880831092C10008951F93AB
:10546000CF93DF93182FEB0161E033D1209731F414
:1054700060E0812FDF91CF911F9167C1CF3FD105B0
:1054800011F461E0F6CFE12FF0E0EC51FE4FE49132
:10549000E150E23108F0B2C0F0E08827EE5AF54D55
:1054A0008F4F65C5642A6C2A712A7B2A852AFE2AB9
:1054B0008F2A972A9F2AA92AB32ABD2ACC2AD62A1C
:1054C000FE2AE02AEA2AF42A84B5806884BDC7BD92
:1054D000DF91CF911F91089584B5806284BDC8BDCE
:1054E000F7CF80918000806880938000D0938900FE
:1054F000C0938800EDCF809180008062809380000F
:10550000D0938B00C0938A00E3CF809180008860A5
:1055100080938000D0938D00C0938C00D9CF809170
:10552000B00080688093B000C093B300D1CF809169
:10553000B00080628093B000C093B400C9CF809166
:105540009000806880939000D0939900C093980059
:10555000BFCF80919000806280939000D0939B0099
:10556000C0939A00B5CF809190008860809390009E
:10557000D0939D00C0939C00ABCF8091A000806829
:105580008093A0008091A0008F7B8093A000D09397
:10559000A900C093A8009CCF8091A0008062809356
:1055A000A000D093AB00C093AA0092CF8091A0003E
:1055B00088608093A000D093AD00C093AC0088CFEA
:1055C00080912001806880932001D0932901C093AD
:1055D00028017ECF80912001806280932001D093AA
:1055E0002B01C0932A0174CF8091200188608093A1
:1055F0002001D0932D01C0932C016ACFC038D10572
:105600000CF03FCF35CF8150823108F059C0E82FE0
:10561000F0E08827E25FF44D8F4FA9C42E2B322B88
:10562000202B262B2A2B602B352B3B2B3F2B452B5E
:10563000492B4D2B532B572B602B5B2B612B652B51
:10564000809180008F778093800008958091800002
:105650008F7DF9CF80918000877FF5CF84B58F77DC
:1056600084BD089584B58F7DFBCF8091B0008F7786
:105670008093B00008958091B0008F7DF9CF809124
:1056800090008F77809390000895809190008F7D97
:10569000F9CF80919000877FF5CF8091A0008F7720
:1056A0008093A00008958091A0008F7DF9CF809114
:1056B000A000877FF5CF809120018F778093200114
:1056C0000895809120018F7DF9CF80912001877FFF
:1056D000F5CFCF93DF9390E0FC01E65DFD4F249181
:1056E00080599D4FFC0184918823C9F090E0880F78
:1056F000991FFC01E651FD4FA591B491FC01E053C7
:10570000FD4FC591D49161110DC09FB7F8948C9154
:10571000209582238C938881282328839FBFDF9143
:10572000CF910895623051F49FB7F8943C91822F45
:10573000809583238C93E8812E2BEFCF8FB7F8943D
:10574000EC912E2B2C938FBFEACF1F93CF93DF9337
:10575000282F30E0F901EC51FE4F8491F901E65D0C
:10576000FD4FD491F901E059FD4FC491CC23A1F034
:10577000162F811148DFEC2FF0E0EE0FFF1FE053F2
:10578000FD4FA591B4918FB7F894EC91111108C019
:10579000D095DE23DC938FBFDF91CF911F910895C9
:1057A000DE2BF8CFCF93DF93282F30E0F901EC51B7
:1057B000FE4F8491F901E65DFD4FD491F901E05966
:1057C000FD4FC491CC2399F081111DDFEC2FF0E047
:1057D000EE0FFF1FEA54FD4FA591B491EC91ED231C
:1057E00081E090E009F480E0DF91CF91089580E0BE
:1057F00090E0FACFFC01918D228D892F90E0805CA2
:105800009F4F821B91098F7399270895FC01918DF9
:10581000828D981731F0828DE80FF11D858D90E013
:1058200008958FEF9FEF0895FC01918D828D981759
:1058300061F0A28DAE0FBF2FB11D5D968C91928D40
:105840009F5F9F73928F90E008958FEF9FEF089571
:10585000FC01538D448D252F30E0842F90E0821B76
:10586000930B541710F0CF96089501970895FC01FB
:10587000A48DA80FB92FB11DA35ABF4F2C91848DB1
:1058800090E001968F739927848FA689B7892C930E
:10589000A089B1898C91837080648C93938D848D61
:1058A000981306C00288F389E02D80818F7D808364
:1058B0000895CF93DF93EC01888D8823B1F0AA89F6
:1058C000BB89E889F9898C9185FD03C0808186FDBB
:1058D0000CC00FB607FCF7CF8C9185FFF2CF80810B
:1058E00085FFEDCFCE01C3DFEACFDF91CF910895E1
:1058F000EF92FF920F931F93CF93DF93EC0181E020
:10590000888F9B8D8C8D98131AC0E889F9898081C6
:1059100085FF15C09FB7F894EE89FF896083E889F9
:10592000F98980818370806480839FBF81E090E0EB
:10593000DF91CF911F910F91FF90EF900895F62E78
:105940000B8D10E00F5F1F4F0F731127E02E8C8D12
:105950008E110BC00FB607FCFACFE889F989808158
:1059600085FFF5CFCE0183DFF2CFEB8DEC0FFD2F5E
:10597000F11DE35AFF4FF0829FB7F8940B8FEA892D
:10598000FB8980818062D0CFCF92DF92EF92FF922D
:105990001F93CF93DF93EC016A017B01122FE889FB
:1059A000F98982E08083C11481EED806E104F10414
:1059B00099F060E079E08DE390E0A7019601B5D21F
:1059C0002150310941095109569547953795279539
:1059D000211580E1380790F0E889F989108260E8A4
:1059E00074E88EE190E0A70196019FD22150310921
:1059F000410951095695479537952795EC85FD85C1
:105A00003083EE85FF852083188EEC89FD89108315
:105A1000EA89FB89808180618083EA89FB898081B2
:105A200088608083EA89FB89808180688083EA8935
:105A3000FB8980818F7D8083DF91CF911F91FF90C3
:105A4000EF90DF90CF9008951F920F920FB60F92B4
:105A500011240BB60F922F938F939F93EF93FF9385
:105A6000E0913B05F0913C058081E0914105F0918A
:105A7000420582FD1DC09081809144058F5F8F7328
:105A800020914505821741F0E0914405F0E0E55D85
:105A9000FA4F958F80934405FF91EF919F918F91DD
:105AA0002F910F900BBE0F900FBE0F901F90189567
:105AB0008081F2CF1F920F920FB60F9211240BB676
:105AC0000F922F933F934F935F936F937F938F9397
:105AD0009F93AF93BF93EF93FF938BE295E0C7DE65
